:020000040800F2
:1000000098610120916A0008D16F0008D36F000841
:10001000D56F0008D76F0008D96F000800000000F6
:10002000000000000000000000000000DB6F00087E
:10003000DD6F000800000000DF6F0008E16F0008BE
:100040008D6E0008916E0008956E0008996E00088C
:100050009D6E0008A16E0008A56E0008A96E00083C
:10006000AD6E0008B16E0008B56E0008B96E0008EC
:10007000BD6E0008C16E0008C56E0008C96E00089C
:10008000CD6E0008D16E0008D56E0008D96E00084C
:10009000DD6E0008E16E0008E56E0008E96E0008FC
:1000A000ED6E0008F16E0008F56E0008F96E0008AC
:1000B000FD6E0008016F0008056F0008096F000859
:1000C0000D6F0008116F0008156F0008196F000808
:1000D0001D6F0008216F0008256F0008296F0008B8
:1000E0002D6F0008316F0008356F0008396F000868
:1000F0003D6F0008416F0008456F0008496F000818
:100100004D6F0008516F0008556F0008596F0008C7
:100110005D6F0008616F0008656F0008696F000877
:100120006D6F0008716F0008756F0008796F000827
:100130007D6F0008816F0008856F0008896F0008D7
:100140008D6F0008916F0008956F0008996F000887
:100150009D6F0008A16F0008A56F0008A96F000837
:10016000AD6F0008B16F0008B56F0008B96F0008E7
:10017000BD6F0008C16F0008C56F000800000000D7
:10018000C96F0008CD6F00084E4F5420464F5220D3
:1001900050524F44554354494F4E3B464F522045D1
:1001A0004455434154494F4E20505552504F5345AA
:1001B000204F4E4C593B4259204D4F4F4E474C4FCC
:1001C0005700000001468888CA8882423DBF0989DD
:1001D000081A1018101A80B2704701898388C088E5
:1001E0000A4698423ABFC91A4118C11A511A481E04
:1001F00080B27047C1888180704770B4838802895B
:100200008588C6881446AE423ABF521BB218721B8C
:1002100092B29142B8BF0A462AB1D3189BB2A34208
:10022000A8BF1B1B838070BC704700002DE9F047FE
:100230008688B0F808A0056888461746FFF7C2FF11
:100240000446A742B8BF3C4614B90020BDE8F08779
:100250004FF00009AAEB0607BFB2BC42B8BF274661
:10026000012F03D1A85D08F8090005E03A46A91955
:1002700008EB090000F0A6F8BE19B6B2E41B56451B
:10028000A4B2A8BF0026B944002C1FFA89F9E1D115
:100290004846BDE8F08700002DE9F04F054681B0E3
:1002A000AE88B5F80890D5F800A088461746FFF745
:1002B00089FF0446A742B8BF3C461CB9002001B0E4
:1002C000BDE8F08F5FF00007A9EB06001FFA80FB86
:1002D0005C45B8BFA346B8B25A460AEB0601404493
:1002E00000F070F85E44B6B2A4EB0B044E45A4B225
:1002F000A8BF0026002C5F44E6D1AE80B8B201B0A2
:10030000BDE8F08F2DE9F04F064681B0F588D6F8AC
:1003100000A03089B488F78881460346A7423ABFD7
:10032000001B3818381B181A441EA4B2A242B8BFCA
:1003300014461CB9002001B0BDE8F08F00278846A4
:10034000A9EB05001FFA80FB5C45B8B2B8BFA34615
:1003500008EB00015A460AEB050000F033F85D4453
:10036000ADB2A4EB0B044D45A4B2A8BF0025002CF0
:100370005F44E5D1F580B8B201B0BDE8F08F01600F
:1003800000218180C1800281704730B4002513E0D4
:1003900050F8042BD30744BFA9F101039A18091F91
:1003A000042942F8045BFAD213468C0744BF158037
:1003B0009B1CC90748BF1D7050F8041B0029E7D1DA
:1003C00030BC704762B38B0708D0521E11F8013B56
:1003D00000F8013B00F024808B07F6D1830740F042
:1003E000208000BF103A07D330B4B1E83810103A7B
:1003F000A0E83810F9D230BC530724BFB1E8081088
:10040000A0E8081044BF51F8043B40F8043BD20771
:1004100024BF31F8022B20F8022B44BF0B78037065
:100420007047121F17D35B0009D151F8043B20F825
:10043000023B1B0C121F20F8023BF6D20BE051F8D6
:10044000043B00F8013B1B0A20F8023B1B0C121F67
:1004500000F8013BF3D238BF121D521E24BF11F821
:10046000013B00F8013BF8D87047000000B593B09D
:10047000302106A800F004F901A800210022002381
:100480000EC006C0764800914FF48033026842F0F7
:1004900080520260006800F080500090009871481F
:1004A0000091026842F4804202600122006800F478
:1004B0008040009006A80099069202214FF4800225
:1004C0000C910D920421A8220E910F920221072275
:1004D00007931091119200F0D7F828B1FA2000F09C
:1004E00085FA00F0D3FAFEE702210291002203927E
:1004F0000F204FF4A051019004914FF480520592C7
:10050000052101A800F0ECFA28B1FA2000F06EFAFB
:1005100000F0BCFAFEE713B000BD000030B587B0B4
:1005200000F0C0FB044600F0DBFBFFF79FFF00205C
:1005300000904D4D4D48016841F001010160026895
:1005400002F001020092002200990092036843F039
:1005500002030360016801F002010091009900921A
:10056000036843F004030360016801F00401009193
:1005700000990092036843F008030360016801F0EA
:100580000801009100990092036843F01003036092
:10059000016801F01001009100990092036843F096
:1005A00020030360016801F020010091009900928E
:1005B000036843F080030360006800F0800000904F
:1005C000009800F0A9FB00F0DFFB00F05BFD02F0FB
:1005D00031FC2946002002F060FD0020009000233D
:1005E0000022002102F094FC2946012002F055FD72
:1005F00000200090002300220021012002F088FC4E
:100600000022C821042000F00FFC684600210022CF
:10061000002300252EC00EC0684602F0B0FF0498EB
:10062000AA280DD1022155220091049202F0C4FFA4
:10063000684602F049FF02F0D2FF02F0C9FF00BF96
:1006400002F015FC34B100F006FE02F005FB00F0EC
:100650003BFE00BF00F008FC02F01EFCF0E70000CB
:10066000403802400070004020A1070030380240AE
:1006700000B581B0FA2000F0B9F900F007FAFEE702
:10068000002203F039B800002DE9F041040082B0E7
:1006900000F09E812078DFF84863C10713D5B06869
:1006A00000F00C00042807D0B06800F00C00082807
:1006B00041D1706841023ED53068810303D560683E
:1006C000002800F085812178880719D5B16811F0DC
:1006D0000C0F07D0B06800F00C00082866D17068D5
:1006E000410263D43068810703D5E068012840F0F7
:1006F0006F813168206921F0F80141EAC001316061
:100700002178080740F18F806069B649002879D0C8
:100710000122C1F8802E03F009F80546706F8107A9
:1007200000F1818003F002F8401B0228F6D9032073
:1007300002B0BDE8F0816068B0F5803F04D1306858
:1007400040F48030306011E0B0F5A02F306806D161
:1007500040F480203060316841F4803105E020F4BD
:1007600080303060316821F480213160606870B180
:1007700002F0DCFF054630688103A4D402F0D6FF06
:10078000401B6528F7D3032002B0BDE8F08102F0DA
:10079000CDFF05463068810395D502F0C7FF401BA9
:1007A0006528F7D3032002B0BDE8F081E0688D49E9
:1007B000C0B101220A6002F0B9FF05463068810726
:1007C00008D402F0B3FF401B0228F7D9032002B07F
:1007D000BDE8F0813068216920F0F80040EAC100EE
:1007E00030608DE7086002F0A1FF05463168880798
:1007F00086D502F09BFF401B0228F7D9032002B0E8
:10080000BDE8F081C1F8800E02F090FF0546706FE0
:10081000810708D502F08AFF401B0228F7D9032080
:1008200002B0BDE8F0812078410767D5306C002523
:10083000C1000AD400950125316C41F0805131642A
:10084000306C00F0805000900098674F3868C10508
:1008500013D4386840F48070386002F067FF804637
:100860003868C10509D402F061FFA0EB0800022836
:10087000F6D9032002B0BDE8F081A068012803D1B9
:10088000306F40F001000FE00528306F06D140F0D6
:1008900004003067306F40F0010005E04008400080
:1008A0003067306F20F00400306741F28937A0686C
:1008B00078B102F03BFF8046306F810719D402F017
:1008C00035FFA0EB0800B842F6D3032002B0BDE824
:1008D000F08102F02BFF8046306F810709D502F0CE
:1008E00025FFA0EB0800B842F6D3032002B0BDE814
:1008F000F0811DB1306C20F080503064A069002878
:100900006AD0B16801F00C01082944D00228354DA5
:1009100030D10020286602F009FF074630688101C7
:1009200008D502F003FFC01B0228F7D9032002B04C
:10093000BDE8F081E069216A626A0843A16A49085A
:1009400040EA8210491E40EA0140E16A40EA016043
:1009500070600120286602F0E9FE044630688101DB
:100960003AD402F0E3FE001B0228F7D9032002B0BC
:10097000BDE8F0810020286602F0D8FE0446306809
:10098000810129D502F0D2FE001B0228F7D90320ED
:1009900002B0BDE8F08101281AD0B068E26900F425
:1009A0008001914202BF00F03F01226A91420FD1C3
:1009B00047F6C071626A0140914202BF00F44031C3
:1009C000A26A914202BF00F07060E16A884203D0DF
:1009D000012002B0BDE8F081002002B0BDE8F08146
:1009E00000380240000047420070004030B581B03E
:1009F000044602F09BFE14F1010F054602D00548A3
:100A00000178641802F092FE401BA042FAD301B0B4
:100A100030BD00BF000000202B4B19684FF6FF02CD
:100A20000002114000F4E0600843284908431860C0
:100A3000704730B4244B1C68C4F30223C3F107058C
:100A4000052D28BF0F2405D20125C3F1070405FA9F
:100A500004F4641E1D1D072D34BF0023DB1E21403E
:100A60009940012404FA03F35B1E1A401143090163
:100A7000020003D41648815430BC7047154B02F075
:100A80000F021A4402F8041C30BC7047BFF34F8FAA
:100A90000D4911480A6802F4E06202430A60BFF39C
:100AA0004F8F00BFFDE7401EB0F1807F01D30120D2
:100AB00070470A494860F02081F8130D00228A60CF
:100AC00007200860002070470CED00E00000FA05E8
:100AD00000E400E018ED00E00400FA0510E000E09A
:100AE0002DE9F04104000E4661D0464DD5F80004D2
:100AF00000F00F00B04207D285F80064D5F800047A
:100B000000F00F00B04252D12068810712D5400793
:100B100003D5A96841F4E051A9602078010703D505
:100B2000A86840F46040A860A968A06821F0F001BE
:100B30000143A9602178C8072BD56068012802D13C
:100B400029688A0305E0022818BF032805D129680F
:100B50008A0105D40120BDE8F08129688A0726D5DD
:100B6000A968890840EA8100A86041F2893802F04A
:100B7000DDFD0746A868616800F00C00B0EB810F4E
:100B800007D002F0D3FDC01B4045F3D30320BDE8DE
:100B9000F081D5F8000400F00F0086420AD285F8F3
:100BA0000064D5F8000400F00F00B04202D001202C
:100BB000BDE8F0812078410705D5AA68E06822F4F5
:100BC000E0520243AA602178080706D5A968206987
:100BD00021F4604141EAC001A96000F01BF8AA6855
:100BE00009490A4BC2F30312895CC84018600848DF
:100BF000006802F0A1FD0020BDE8F0810348006814
:100C00007047000000380240CC6A00080C00002049
:100C10000800002030B5144C606800F00C00042877
:100C200003D0082803D0114830BD114830BD2268D8
:100C300020680023410202F03F0204D525680C49D8
:100C4000C5F3881003E020680849C0F38810A1FBB1
:100C5000000102F095FD2168C1F30141491C4900E2
:100C6000B0FBF1F030BD00BF043802400024F400B6
:100C700000127A00F0B441F2210482B111F8015B54
:100C8000521E0823064640002F0648BF40F00100D0
:100C9000360448BF60406D005B1EF3D1EDE7F0BC49
:100CA00080B2704700B50B490B4A521A81B0521CF2
:100CB0000020FFF7DFFF0021ADF800100222694697
:100CC000FFF7D8FF05490A8882420CBF01200020A7
:100CD00001B000BD00000008D06500084F76000894
:100CE00000B50C4881B0016841F4007101600268F0
:100CF00042F480620260016841F480710160032067
:100D0000FFF78AFE002002F017FD02F051FE0020DE
:100D100001B000BD003C024081B0002000901848A6
:100D2000016A41F001010162016A01F001010091D3
:100D30000099026842F0010202604FF080410368AE
:100D40005B085B00036053228A624FF6FF400B682A
:100D500003400B600A680A604B6943F001034B6172
:100D6000086840F00100086001B07047054800685D
:100D7000704702F0DBBC0348006880017047000048
:100D80002038024024000040F0B578489BB001684C
:100D900041F001010160026800920099026842F08E
:100DA00004020260036800930099026874A342F091
:100DB0000402026015AA00680090009993E8F01000
:100DC00082E8F0106A4C15A9204602F00DFE00BF23
:100DD00070A090E8EA0010AA82E8EA00654D10A928
:100DE000284602F001FE00BF6FA191E8CC100BA8CD
:100DF0000BA980E8CC10284602F0F6FD6FA191E81F
:100E0000EC0006A806A980E8EC00204602F0ECFD04
:100E10006FA191E8EC0001A801A980E8EC00204650
:100E200002F0E2FD1BB0F0BD70B504280D4614467B
:100E300000DDFEE7504901EB0016B089A84211D051
:100E4000B581FFF796FF40F00100B06000207060B0
:100E50003CB1322D18BFC82D03D1B068041944F03D
:100E60000104346070BD00002DE9F04F81B0FFF740
:100E700080FF81460025404F404E4FF480244FF4C0
:100E8000002A4FF4800B4FF40008B868002865D0A2
:100E90007968A9EB0000884260D3B889012818BF9F
:100EA000022806D0322818BFC82809D00021B9600E
:100EB00022E0012818BF0020B8730020B8601BE0B2
:100EC000B87B80F00100B87349F00101B960B889BE
:100ED0007860386880B181450ED3042D18DCB8895C
:100EE000022809D00221B981FFF743FF40F0010039
:100EF000B860002078603860042DB87B2ED8DFE819
:100F000005F0031810082200D8B10420306025E055
:100F1000FEE718B18020C6F800081FE0C6F8008878
:100F20001CE018B14020C6F8000817E0C6F800B869
:100F300014E018B10820306010E000BFC6F800A02F
:100F40000CE034600AE028B14FF48060C6F8000875
:100F500004E000BF4FF08061C6F800186D1C103728
:100F6000042D92DD01B0BDE8F08F00003038024062
:100F700000080240000002402459012018000240ED
:100F8000000400000100000000000000010000005B
:100F9000000000000400000001000000000000004C
:100FA0000100000000000000080000000100000037
:100FB00000000000010000000000000040000000F0
:100FC000010000000000000001000000000000001F
:100FD000800000000100000000000000010000008F
:100FE00000000000F0B50D46DFF8804604F5916181
:100FF00081B0401E80410022002300260027CCC182
:101000004CC11C22A4F88824C043C00F01214FF416
:10101000816284F89414A4F88A2484F89504FFF774
:10102000AAFEC4F89C04C4F89804F021A4F8901413
:101030000020E90748BF0120A90748BF022069072F
:1010400048BF03202902090E090241EA004141EA92
:101050001565C4F8A054DFF8180625182846FFF7D0
:10106000BCF8B4F8881488420AD30A4604F59161A2
:101070002846FFF747F9B4F88814884200D0FEE705
:1010800001B0F0BD10B5DFF8E445DFF8E40541F24A
:10109000D8114FF4004221442044FFF770F9DFF8E3
:1010A000D4054FF4806204F6D8512044FFF767F965
:1010B00049F2D8102118DFF8C0354FF40072E0185B
:1010C000FFF75DF9DFF8B405DFF8B43521184FF408
:1010D0008062E018FFF753F949F2D8302118DFF8A1
:1010E000A4354FF48042E018FFF749F94DF2D830AB
:1010F0002118DFF894354FF48042E018FFF73FF9EC
:10110000DFF888452146002001F0BEFF214601207E
:1011100001F0BAFF002010BDF0B50F4681B0D7F83E
:101120009042002C06463FD0307860B101283BD178
:101130007278211D02F00F02885C002834D13070D3
:1011400001B00120F0BD7278211D02F00F02885C11
:1011500000B1FEE77068FFF735F8050024D030696C
:10116000B168A84238BF85B270682A46FFF794F884
:10117000A84200D0FEE77178201D01F00F01012286
:1011800042542B46707800F00F0000EB800107EB13
:1011900081013846CD61B268717802F066FEF06870
:1011A0002D18F56001213170002001B0F0BD10B59F
:1011B000DFF8B844D4F83814D4F8340440F2FF729D
:1011C000091A91423FBFD4F87034D4F86C145B1AFA
:1011D00093420FD2DFF8A0042044FEF7F3FF00286B
:1011E00038D1FFF7C6FDD4F8C419401A41F289324C
:1011F00090422FD3FFF7BDFDC4F8C409422120203F
:10120000C4F88805A4F88C150220A4F88E050021E6
:10121000D4F83804C4F89C05C4F83404C4F8901514
:101220000120C4F8A005C4F89415C4F8981520222C
:10123000D4F87004C4F8A405C4F86C0404F5B161D2
:10124000DFF834042044FFF75DF8D4F888158842AD
:1012500000D0FEE710BD30B5DFF83444DFF8345479
:1012600081B0294604F12800FFF756FF29462046A1
:10127000FFF752FF294604F1140001B0BDE83040E9
:101280004AE710B5DFF8E4431420C4F8A8090121A7
:10129000A4F8AE1948F24000A4F8AC090021C4F843
:1012A000B4191422DFF8CC0304F6A8112044FFF788
:1012B00029F8D4F8A819884200D0FEE710BDDFF85D
:1012C000AC13C1F8140470472DE9F047FFF74EFD49
:1012D000DFF898930546FFF74CFDD9F80C14044647
:1012E00000291CBFD9F8000400282BD0D9F8CC095C
:1012F000281A884226D309F5916000210022002394
:101300000EC00EC01821A9F888140120082189F800
:101310009404A9F88A1489F89524FFF72CFDC9F8DC
:101320009C04C9F8980409F59161B9F88824D0485B
:101330004844FEF7E7FFB9F88814884200D0FEE77A
:10134000C9F8CC59D9F8C809201A00F0BD80D9F8DD
:10135000C009C9F8C849002803DD401EC9F8C00902
:1013600006E005D14FF0FF30C9F8C009FFF789FF4B
:10137000D9F8080400283CD0D9F80004002800F06F
:10138000B280D9F8D00988BB242109F59160FFF714
:1013900077F924200621A9F8880489F894143120CB
:1013A0000021A9F88A0489F89514FFF7E4FCC9F82C
:1013B0009C04C9F898040121C9F8A014D9F81404B0
:1013C000D9F89C14B9F88824C9F8A404C9F8A81459
:1013D00009F59161A6484844FEF794FFB9F88814CE
:1013E000884200D0FEE74FF47A7000E0401EC9F852
:1013F000D009D9F80004002875D0D9F8D4090028FC
:101400005FD19B48A44D002609F5846709EB0004D1
:1014100040F2074A4FF47A7857F8080C002848D071
:10142000F0B207284BDA382109F59160FFF728F967
:1014300038200121A9F8880489F89414A9F88AA40D
:1014400089F89564FFF797FCC9F89C04C9F89804DB
:10145000C9F8A054F8693A6A3968904BDFF840C27D
:101460001018B1FBF0F1B3FBF1F308FB03F3A3FB9E
:101470000CC0C008C9F8A4040021C9F8A814786AEF
:10148000C9F8AC04C9F8B014C9F8B414C9F8B81450
:10149000C9F8BC1409F59161B9F888242046FEF713
:1014A00031FFB9F8881488420AD10020F861386207
:1014B0007862761C3837012EAEDD322002E0FEE77E
:1014C000FEE7401EC9F8D409D9F8000458B16D48A8
:1014D0000021484401F0F4FB6B480121484401F02D
:1014E000EFFBFFF764FE6248002409F23C4609EB7B
:1014F000000A4FF4E208002704E0671EBF41FF43E3
:101500005FEAD77756F8240C48B90021384601F035
:1015100084FD641C3836012CEFDDBDE8F0873846C9
:1015200001F09EFD0500F4D0002C0CBF012003202B
:10153000C8223221FFF778FC284601F0A3FC31686D
:1015400040183060E1B2B068401C0729B06058DA3A
:10155000382109F59160FFF793F838200121A9F8A7
:10156000880489F894144FF480600021A9F88A0453
:10157000C9F88C1489F89544FFF7FDFBC9F89C0461
:10158000C9F89804F021A9F89014C9F8A084286833
:10159000D9F8A814C9F8A404687A60F30301C9F85B
:1015A000A814287AC10705D5D9F8AC0440F000404A
:1015B000C9F8AC04287A810705D5D9F8A80440F009
:1015C0000070C9F8A8046868D9F8AC1460F31C016D
:1015D000C9F8AC1405F10A016A7A09F59760FEF7BB
:1015E000F1FEB9F8882409F591615046FEF78AFEAC
:1015F000B9F88814884205D10021384601F00DFD64
:1016000080E7FEE7FEE7F0B5184DB5F8BC690C467B
:10161000A119B1F5806F81B000D3FEE7014605F650
:10162000D81022463044FEF7CDFEA619A5F8BC69B5
:10163000B6B2B5F8D879BE4214DB11483A4605F681
:10164000D8112844FEF75EFEB84200D0FEE7B5F898
:10165000BC6905F6D810F21BC11902F029FCF71B72
:10166000A5F8BC79204601B0F0BD0000900700202D
:10167000D8170100E4170100F0170100D81301008A
:10168000FC1701000818010014180100E50F0008FC
:10169000B01F01208852012001D4300040420F00C9
:1016A00089888888F0B5102985B04CD30446E08835
:1016B000032805D8DFE810F00500B8003201A807BC
:1016C000FEE7A188B1F5886F05D040F24142914212
:1016D00000F02181FEE7E568684600210022002332
:1016E0000EC006C0616921F06041019160699DF8FA
:1016F000081041EAD0718DF808102069C0F300107D
:1017000018B141F002018DF8081004F11C01207C91
:1017100000F00F008DF809000928A4BF08208DF8FB
:1017200009009DF809200DF10A00FEF74BFE022D7D
:1017300000DBFEE7681E8041C043C00F694601F030
:1017400031FC002803D54FF0FF3005B0F0BD6846EE
:1017500001F098FBDFF8386DC5EBC50106EBC10160
:10176000D1F840248018C1F84004D1F84404401C4A
:10177000C1F84404002D0CBF00200220C8223221F1
:10178000FFF752FBE8B2062800DDFEE7382106F538
:101790009160FEF775FF3820A6F88804012140F219
:1017A0000440A6F88A0486F8941486F89554A06834
:1017B000C6F88C04FFF7DFFAF021A6F89014C6F8FB
:1017C0009C04C6F898040020D6F89C14C6F8A4140B
:1017D000C6F8A0042169C1F3001020B121F0100166
:1017E00041F0007121612069C6F8A80400206169F8
:1017F000C6F8B004C6F8B404C6F8AC1404F11C0072
:1018000006F5976102680A604268DFF8880C4A6052
:1018100006F59161B6F888243044FEF773FDB6F8FA
:101820008814884277D0FEE7A088402802D041285B
:101830002AD0FEE7DFF8585C4FF0FF31C5F8C01939
:1018400044B194E80F0085E80F00A88840F40040F8
:10185000A88005E0002000210022002385E80F0079
:10186000102028600021E96005F11000FEF708FF54
:101870002A68DFF8240C92B229462844FEF742FD7C
:101880002968884247D0FEE72068882800D0FEE714
:10189000DFF8FC5B44B194E80F0085E80F00A888EE
:1018A00040F40040A88005E0002000210022002331
:1018B00085E80F00882000212860E96005F110000C
:1018C0007821FEF7DDFEDFF8D40B2A68DFF8C83B8D
:1018D000286100210320A86269624FF0FF3028636D
:1018E00068630621DFF8B80BE962A86392B2294663
:1018F000E818FEF707FD2968884200D0FEE740F2AD
:10190000DC50C5F8C009002201210420FFF78CFA41
:101910000020C5F80004002005B0F0BDA088401EDE
:1019200065D0401E00F08980401E00F0CF80401E30
:1019300000F01581801E00F05681401E00F0548199
:10194000233800F07C81401E00F0A781401E00F08B
:10195000F481801E00F01B823B3800F03A83C01FE8
:1019600000F06E83401E00F0AE83401E00F0E8835E
:10197000801E00F05584401E00F05384401E00F08D
:101980008284401E00F0A184401E00F0C184401EED
:1019900000F0E0840938BED0C01E00F0DC84401E98
:1019A00000F0FD84401E00F02285093800F04685D5
:1019B000401E00F04485801E00F07685401E00F039
:1019C0007485401E00F07285401E00F07085401E38
:1019D00000F06E85401E00F06C85401E00F096857C
:1019E000673800F0BE85401E00F0E585FEE7DFF8B1
:1019F000A05A44B194E80F0085E80F00A88840F48D
:101A00000040A88004E000210022002385E80F00A8
:101A1000102028600021E96005F11000FEF730FE7B
:101A20002A68DFF8740A92B229462844FEF76AFC55
:101A3000296888423FF46FAFFEE720689C2800D0F9
:101A4000FEE7DFF84C5A44B194E80F0085E80F0038
:101A5000A88840F40040A88005E000200021002272
:101A6000002385E80F009C2000212860E96005F133
:101A700010008C21FEF704FEDFF8280A68610922B5
:101A800041F25000A862EA634FF0FF30E862286339
:101A90000A20A8630C2028640620DFF8002A6A6464
:101AA0000021A8642961A961E96129626962696309
:101AB000E96529462A68DFF8E00992B22844FEF772
:101AC00021FC296888423FF426AFFEE72668102EE5
:101AD00000D8FEE7103E06F11000B0F5806F00D38D
:101AE000FEE7DFF8AC5944B194E88E0085E88E003B
:101AF000A98841F40041A98005E0002100220023CB
:101B0000002785E88E00286031460020E86005F156
:101B10001000FEF7B5FD324604F1100105F110008A
:101B2000FEF750FC05F1100002F00EFA002804D474
:101B300000211030E960286004E04FF0404010219F
:101B4000E860296029462A68DFF84C0992B22844E7
:101B5000FEF7D8FB296888423FF4DDAEFEE7266831
:101B6000102E00D8FEE7103E06F11000B0F5806F91
:101B700000D3FEE7DFF8185944B194E88E0085E8F9
:101B80008E00A98841F40041A98005E000210022CF
:101B90000023002785E88E00286031460020E86099
:101BA00005F11000FEF76CFD324604F1100105F15D
:101BB0001000FEF707FC05F1100002F0FFF9002805
:101BC00004D54FF040401021E860296029462A687A
:101BD000DFF8C40892B22844FEF794FB29688842D3
:101BE0003FF499AEFEE7FEE72068182800D0FEE734
:101BF000DFF89C5844B194E80F0085E80F00A888EE
:101C000040F40040A88005E00020002100220023CD
:101C100085E80F00102028600021E96005F1100020
:101C2000FEF72EFD2A68DFF8700892B22946284494
:101C3000FEF768FB296888423FF46DAEFEE7206935
:101C4000DFF84C5801280CBF60690020C5F80C046F
:101C500044B194E80F0085E80F00A88840F40040E4
:101C6000A88005E0002000210022002385E80F0065
:101C7000102028600021E96005F11000FEF700FD4A
:101C80002A68DFF8140892B229462844FEF73AFB86
:101C9000296888423FF43FAEFEE72068102800D054
:101CA000FEE7DFF8EC5744B194E80F0085E80F0039
:101CB000A88840F40040A88005E000200021002210
:101CC000002385E80F00102028600021E96005F15D
:101CD0001000FEF7D5FC2A68DFF8BC0792B229464F
:101CE0002844FEF70FFB2968884200D0FEE705F57F
:101CF00091600021002200230EC00EC01821A5F81B
:101D00008814062085F894043221A5F88A1485F8F1
:101D100095241822DFF87C0705F591612844FEF729
:101D2000F1FAB5F88814884200D0FEE700220221BB
:101D30000420FFF779F80120EBE52168102900D095
:101D4000FEE7DFF84C5744B194E80F0085E80F0038
:101D5000A88840F40040A88004E00021002200236D
:101D600085E80F00102028600021E96005F11000CF
:101D7000FEF786FC2A68DFF8200792B2294628443D
:101D8000FEF7C0FA296888423FF4C5ADFEE7206837
:101D9000102800D0FEE7DFF8F85644B194E80F00B1
:101DA00085E80F00A88840F40040A88005E00020E6
:101DB00000210022002385E80F0010202860002168
:101DC000E96005F11000FEF75BFC2A68DFF8C80641
:101DD00092B229462844FEF795FA2968884200D035
:101DE000FEE7302105F59160FEF74AFC0621302020
:101DF00085F89414A5F88A14A5F88804002185F8BC
:101E000095140120C5F8A814C5F8AC14C5F8A404AD
:101E10000921C5F8B0144FF49E76DFF878064FF626
:101E2000FE772C18C5F8A064C5F8B474302205F507
:101E300091612046FEF766FAB5F88814884200D012
:101E4000FEE7302105F59160FEF71AFC062185F8C2
:101E50009414A5F88A143020012185F89514C5F84A
:101E6000A414A5F888040021C5F8A814C5F8AC147A
:101E7000C5F8A0640921C5F8B014C5F8B4743022BF
:101E800005F591612046FEF73DFAB5F888148842C1
:101E900000D0FEE7302105F59160FEF7F1FB302020
:101EA000A5F888040621002085F89414A5F88A1462
:101EB000C5F8A00402210A2085F89514C5F8A804E5
:101EC00000210920C5F8A414C5F8AC14C5F8B00465
:101ED000C5F8B474302205F591612046FEF712FA78
:101EE000B5F88814884200D0FEE7302105F59160EE
:101EF000FEF7C6FB3020A5F888040621002085F8EF
:101F00009414A5F88A14C5F8A00403210A2085F8C2
:101F10009514C5F8A80400210920C5F8A414C5F833
:101F2000AC14C5F8B004C5F8B474302205F591615D
:101F30002046FEF7E7F9B5F88814884200D0FEE79E
:101F4000302105F59160FEF79BFB3020A5F8880451
:101F50000621002085F89414A5F88A14C5F8A00479
:101F600004210A2085F89514C5F8A8040021092049
:101F7000C5F8A414C5F8AC14C5F8B004C5F8B47419
:101F8000302205F591612046FEF7BCF9B5F88814BA
:101F9000884200D0FEE705F5916000210022002371
:101FA0000EC00EC01821A5F888140620322185F82D
:101FB0009404A5F88A1485F8952405F591611822F2
:101FC0002046FEF79FF9B5F8881488423FF4A3AC89
:101FD000FEE72068142800D2FEE7DFF8B454206939
:101FE000C5F808042168103901F11000B0F5806FC0
:101FF00000D3FEE744B194E8CC0085E8CC00AA8881
:1020000042F40042AA8005E00022002300260027B7
:1020100085E8CC0028600020E86005F11000FEF79C
:102020002FFB20692A68DFF87034286192B22946B4
:10203000E818FEF767F9296888423FF46CACFEE7C0
:102040002668102E00D8FEE7103E06F11000B0F50D
:10205000806F00D3FEE7DFF8385444B194E88E0077
:1020600085E88E00A98841F40041A98005E000219F
:1020700000220023002785E88E00286031460020DA
:10208000E86005F11000FEF7FBFA324604F110019A
:1020900005F11000FEF796F905F1100002F01CF8AA
:1020A000002854BF00204FF04040E86029462A68CD
:1020B000DFF8E40392B22844FEF724F92968884245
:1020C0003FF429ACFEE72668102E00D8FEE7103E4C
:1020D00006F11000B0F5806F00D3FEE7DFF8B053D3
:1020E00044B194E88E0085E88E00A98841F400414F
:1020F000A98005E0002100220023002785E88E004A
:10210000286031460020E86005F11000FEF7B8FABB
:10211000324604F1100105F11000FEF753F905F104
:10212000100002F00EF82A68DFF86C0392B229461C
:102130002844FEF7E7F8296888423FF4ECABFEE755
:10214000DFF84C5305F591600021002200230EC0FA
:102150000EC01821A5F8881401200B2185F89404DD
:10216000A5F88A1485F89524FEF705FEC5F89C04A9
:10217000C5F89804C749B5F888246E1805F591612B
:102180003046FEF7BFF8B5F88814884200D0FEE765
:1021900005F591600021002200230EC00EC0182119
:1021A000A5F8881406200B2185F89404A5F88A1454
:1021B00085F89524FEF7DFFDC5F89C04C5F8980462
:1021C00005F59161B5F888243046FEF79BF8B5F81F
:1021D0008814884200D0FEE744B194E80F0085E8F7
:1021E0000F00A88840F40040A88005E000200021EE
:1021F0000022002385E80F00102028600021E960FC
:1022000005F11000FEF73CFA2A68A34892B229466D
:102210002844FEF777F8296888423FF47CABFEE754
:10222000FEE72069022800DBFEE7994DDFF8E82B86
:1022300000EB400105EB81001044FDF7DBFF44B1EA
:1022400094E80F0085E80F00A88840F40040A880BB
:1022500005E0002000210022002385E80F00102067
:1022600028600021E96005F11000FEF709FA2A68EC
:10227000894892B229462844FEF744F829688842E2
:102280003FF449ABFEE7824D44B194E80F0085E886
:102290000F00A88840F40040A88004E0002100223C
:1022A000002385E80F0014202860002105F11000AC
:1022B000E96001601422784B2946E818FEF722F8FD
:1022C000296888423FF427ABFEE7714D44B194E89A
:1022D0000F0085E80F00A88840F40040A88004E0C3
:1022E00000210022002385E80F001820286000212B
:1022F00005F11000E960C0E90011674B182229467A
:10230000E818FDF7FFFF296888423FF404ABFEE7B9
:102310005F4D44B194E80F0085E80F00A88840F4B1
:102320000040A88004E000210022002385E80F007F
:1023300014202860002105F11000E96001601422DA
:10234000554B2946E818FDF7DDFF296888423FF420
:10235000E2AAFEE7FEE74E4D44B194E80F0085E89F
:102360000F00A88840F40040A88004E0002100226B
:10237000002385E80F00102028600021E96005F1A6
:102380001000FEF77DF92A68434892B22946284496
:10239000FDF7B8FF296888423FF4BDAAFEE7206830
:1023A000182800D0FEE73A4D44B194E80F0085E8C4
:1023B0000F00A88840F40040A88005E0002000211C
:1023C0000022002385E80F0018202860002105F175
:1023D0001000E960C0E900112F4B18222946E818C7
:1023E000FDF790FF296888423FF495AAFEE7206830
:1023F000142800D0FEE7264D44B194E80F0085E88C
:102400000F00A88840F40040A88005E000200021CB
:102410000022002385E80F0014202860002105F128
:102420001000E960016014221B4B2946E818FDF7F3
:1024300069FF296888423FF46EAAFEE7FEE720683C
:10244000102800D0FEE7124D44B194E80F0085E853
:102450000F00A88840F40040A88005E0002000217B
:102460000022002385E80F00102028600021E96089
:1024700005F11000FEF704F92A68074892B22946D0
:102480002844FDF73FFF296888423FF444AAFEE74D
:1024900090070020D8170100E41701000E0005097D
:1024A000C22533000C090A01FEE7FEE7FEE7FEE75E
:1024B000FEE72068202800D0FEE7DFF8605944B12D
:1024C00094E80F0085E80F00A88840F40040A88039
:1024D00005E0002000210022002385E80F002020D5
:1024E0002860002205F1100000230024002180E86C
:1024F0001E00E9602022DFF828392946E818FDF798
:1025000001FF296888423FF406AAFEE720681428E4
:1025100000D0FEE7DFF8045944B194E80F0085E8E5
:102520000F00A88840F40040A88005E000200021AA
:102530000022002385E80F0014202860002105F107
:102540001000E9600160802129611422DFF8D008C1
:1025500029462844FDF7D6FE296888423FF4DBA9C6
:10256000FEE72068182800D0FEE7DFF8B05844B135
:1025700094E80F0085E80F00A88840F40040A88088
:1025800005E0002000210022002385E80F0018202C
:102590002860002105F11000E960C0E90011DFF8B2
:1025A000803818222946E818FDF7ACFE29688842D1
:1025B0003FF4B1A9FEE72068142800D0FEE7DFF859
:1025C0005C5844B194E80F0085E80F00A88840F4F7
:1025D0000040A88005E0002000210022002385E8BB
:1025E0000F0014202860002105F11000E96001604F
:1025F0001422DFF82C382946E818FDF783FE2968F5
:1026000088423FF488A9FEE7A088DFF81058401EF2
:10261000122814D8DFE810F014008800C300F3007B
:1026200037011300130013005C0113008101A601A0
:10263000CB011A024B027A02AF02D302F702FEE785
:102640002669022E00D3FEE7C6EBC60005EBC007E5
:10265000F3B200210122062BC7F84814C7F818244A
:1026600000DDFEE705F59161002200239446A1E814
:102670000C10A1E80C101822A5F88824012140F2C2
:102680000C4285F89414A5F88A2485F89564FEF721
:1026900072FBC5F89C04C5F8980405F59161B5F87E
:1026A0008824DFF880072844FDF72CFEB5F888144D
:1026B000884200D0FEE7761EB641F643D7F82014D4
:1026C000F00F00F0EAFC002000900023002200211F
:1026D000F00F00F01DFC0121F00F00F06BFD44B184
:1026E00094E80F0085E80F00A88840F40040A88017
:1026F00005E0002000210022002385E80F001020C3
:1027000028600021E96005F11000FDF7B9FF2A6893
:10271000DFF80C0792B229462844FDF7F3FD29683B
:1027200088423FF4F8A8FEE72069022800DBFEE7B4
:10273000C0EBC00105EBC1010022401E8041C1F881
:102740001824C1F83424C1F83824C043C00F002134
:1027500000F030FD44B194E80F0085E80F00A88830
:1027600040F40040A88005E0002000210022002362
:1027700085E80F00102028600021E96005F11000B5
:10278000FDF77EFF2A68DFF8980692B229462844B2
:10279000FDF7B8FD296888423FF4BDA8FEE720692F
:1027A000022800DBFEE7C0EBC002616905EBC20056
:1027B000C0F81C1444B194E80F0085E80F00A88805
:1027C00040F40040A88005E0002000210022002302
:1027D00085E80F00102028600021E96005F1100055
:1027E000FDF74EFF2A68DFF8380692B229462844E2
:1027F000FDF788FD296888423FF48DA8FEE720692F
:10280000022800DBFEE7C0EBC00105EBC1016269F5
:10281000C1F82024401EA369C1F824348041E26934
:10282000C1F82824C043236AC1F82C34C00F626A5F
:10283000C1F83024D1F8201400F02FFC44B194E802
:102840000F0085E80F00A88840F40040A88005E04C
:10285000002000210022002385E80F0010202860BE
:102860000021E96005F11000FDF70AFF2A68DFF892
:10287000B00592B229462844FDF744FD29688842F4
:102880003FF449A8FEE744B194E80F0085E80F0043
:10289000A88840F40040A88005E000200021002224
:1028A000002385E80F00102028600021E96005F171
:1028B0001000FDF7E5FE2A68DFF8640592B22946AC
:1028C0002844FDF71FFD296888423FF424A8FEE74D
:1028D00044B194E80F0085E80F00A88840F4004058
:1028E000A88005E0002000210022002385E80F00D9
:1028F000102028600021E96005F11000FDF7C0FEFE
:102900002A68DFF81C0592B229462844FDF7FAFC34
:10291000296888423EF4FFAFFEE744B194E80F0017
:1029200085E80F00A88840F40040A88005E000205A
:1029300000210022002385E80F00102028600021DC
:10294000E96005F11000FDF79BFE2A68DFF8D0046E
:1029500092B229462844FDF7D5FC296888423EF406
:10296000DAAFFEE744B194E80F0085E80F00A888CD
:1029700040F40040A88005E0002000210022002350
:1029800085E80F00102028600021E96005F11000A3
:10299000FDF776FE2A68DFF8880492B229462844BB
:1029A000FDF7B0FC296888423EF4B5AFFEE7206829
:1029B000102800D0FEE744B194E80F0085E80F002E
:1029C000A88840F40040A88005E0002000210022F3
:1029D000002385E80F00102028600021E96005F140
:1029E0001000FDF74DFE2A68DFF8340492B2294644
:1029F0002844FDF787FC2968884200D0FEE705F5EA
:102A000091600021002200230EC00EC01821A5F8FD
:102A100088140120302185F89404A5F88A1485F8DB
:102A20009524FEF7A8F9C5F89C04C5F8980405F5A7
:102A30009161B5F88824DFF8EC032844FDF762FCC7
:102A4000B5F8881488423EF466AFFEE744B194E8D6
:102A50000F0085E80F00A88840F40040A88005E03A
:102A6000002000210022002385E80F0010202860AC
:102A70000021E96005F11000FDF702FE206902283F
:102A800000DBFEE7216ADFF89843C0EBC00305F5E1
:102A90008962D8008909115029462A6892B22819FA
:102AA000FDF730FC296888423EF435AFFEE744B1BB
:102AB00094E80F0085E80F00A88840F40040A88043
:102AC00005E0002000210022002385E80F001020EF
:102AD00028600021E96005F11000FDF7D1FD2069B3
:102AE000022800DBFEE7C0EBC00305F58962D800D1
:102AF0000021115029462A68C94C92B22819FDF7C5
:102B000001FC296888423EF406AFFEE720690228EE
:102B100000DBFEE7C0EBC002616905EBC202401EAC
:102B20008041C2F82014C043C00F00F0B6FA44B18F
:102B300094E80F0085E80F00A88840F40040A880C2
:102B400005E0002000210022002385E80F0010206E
:102B500028600021E96005F11000FDF791FD2A6869
:102B6000AF4892B229462844FDF7CCFB2968884239
:102B70003EF4D1AEFEE744B194E80F0085E80F00C3
:102B8000A88840F40040A88005E000200021002231
:102B9000002385E80F00102028600021E96005F17E
:102BA0001000FDF76DFD2A689D4892B22946284421
:102BB000FDF7A8FB296888423EF4ADAEFEE744B1BC
:102BC00094E80F0085E80F00A88840F40040A88032
:102BD00005E0002000210022002385E80F001020DE
:102BE00028600021E96005F11000FDF749FD2A6821
:102BF0008B4892B229462844FDF784FB2968884215
:102C00003EF489AEFEE72068142800D0FEE744B108
:102C100094E80F0085E80F00A88840F40040A880E1
:102C200005E0002000210022002385E80F00142089
:102C30002860002105F11000E96001601422D5F838
:102C400004147748296128442946FDF75BFB29686D
:102C500088423EF460AEFEE730B5704C72482518ED
:102C600081B02846FDF7AEFA102827D3102204F5CC
:102C7000B5612846FDF7DAFA102800D0FEE72846AD
:102C8000FDF7A0FAD4F8A815884217D3084640F2F9
:102C90000141884200D3FEE782B204F5B5612846BF
:102CA000FDF7FAFAD4F8A815884200D0FEE704F53B
:102CB000B56001B0BDE83040FEF7F4BC01B030BDF6
:102CC0002DE9F04381468846544CC8EBC80081B0DA
:102CD000012704EBC00540F201463CE04846FDF701
:102CE00071FAD4F8A815884246D3B14249D28AB2C3
:102CF00004F5B5614846FDF799FAD4F8A81588425D
:102D000040D1B4F8AC05C4F8B485B0F5886F0DD1E6
:102D1000D5F8480450B1FEF729F8D5F84C14D5F889
:102D20004824411A91422ED3C5F84C04D4F8A81572
:102D300004F5B560FEF7B6FC002824D4D5F83804B5
:102D4000D4F8A8150818C5F838044846D4F8A815CA
:102D500089B2FDF752FA4846FDF734FA102812D32B
:102D60003846471E78B1102204F5B5614846FDF794
:102D70005DFA1028B2D0FEE74FF0FF3001B0BDE899
:102D8000F083FEE7FEE7002001B0BDE8F0832DE907
:102D9000F0410C4625490968CA0748BF4FF0FF308B
:102DA00035D44FF48056224FBD5B6119B1F5805F79
:102DB00000D3FEE7014622467819FDF703FB6419AC
:102DC000BC53DFF858803D8878882C1D0228A4B2B7
:102DD0001FDAB4F5805F1DD2B95BA14216DB00EBB0
:102DE000400308EB83000C4B2A46391D1844FDF7BD
:102DF00089FAA8420FD1BD5B2A1B3919384601F068
:102E000057F82C1BBC53A4B2002CDCD10020BDE829
:102E1000F081FEE7FEE7FEE70818010090070020BA
:102E2000E4170100D8170100FC170100F0ED00E0E5
:102E30007C36012010B50F4C0F490122204601F0CD
:102E4000FDF908B1FDF714FC0C49204601F00BFA1E
:102E500008B1FDF70DFC6420FDF7C8FD204601F028
:102E60000AFA18B1BDE81040FDF702BC10BD0448D5
:102E700001F050BC885201201000002034010020D5
:102E8000804601200146487A097AC000CA0701D568
:102E9000433070472F30704730B581B0FDF769FF80
:102EA0000546DFF8A84504F25C5002F0F9FA04F296
:102EB000845002F0F5FAD4F85805401BFB2825D3BE
:102EC000D4F8A822C4F8585510000BD02068006828
:102ED000D4F8A0128369994204D08169C4F8A01281
:102EE00000209047D4F8542510000FD0D4F8AC023D
:102EF0000068D4F84C158369994207D08169C4F8F9
:102F00004C1501B0BDE830400120104701B030BD84
:102F1000F0B58BB007460C4616461D462822002108
:102F2000684602F0CEFB4FF42B70DFF820154743C4
:102F30000E2CC85932DA0168DFF81425914208BF17
:102F40000E34002206920123109A0793012E10D10D
:102F500025F06045690BED042D0C45F00405530B7D
:102F6000D204120C42F004020091019502930392E4
:102F700009E04FF6E07303EA451300255201009380
:102F800001950292039501220892002104910E22DC
:102F900009920594694602F06DF808B14FF0FF30D0
:102FA0000BB0F0BDF0B587B001AA002300250026C4
:102FB00068C20C4668C24FF42B71DFF89074484326
:102FC0003D580093207A6168C20703D5029104211D
:102FD000039101E001910393607A0590207A8107C3
:102FE0004CBF0220002004900121284602F0ABF9DA
:102FF00020B10221284602F0A6F938B96B4604F147
:103000000A0201A9284602F00DF918B14FF0FF306D
:1030100007B0F0BD009807B0F0BDF0B54FF42B72CB
:10302000DFF8283450431844D0F89C22D0F8983266
:10303000934201D10020F0BD49B102EB820300EBC5
:10304000830202F1180494E8E05081E8E050D0F8DF
:103050009C12491C01F01F01C0F89C120120F0BD18
:103060004FF42B71DFF8E42348431044D0F89C124E
:10307000D0F898228A4201D10020704701EB8102EA
:1030800000EB8200183070474FF42B72DFF8BC332E
:1030900050431844C0F8A812704710B54FF42B7273
:1030A000DFF8A833504301221C5844F62063002067
:1030B0009942A060E06020766276A276E276207780
:1030C000627729D048F2352399422ED04CF2503302
:1030D000994232D0DFF87C33994237D0DFF8783329
:1030E00099423BD0DFF87433994240D0DFF8703317
:1030F000994244D0DFF86C33994258D0DFF86833F6
:103100004FF42020994220614FF48011616114BF77
:103110004FF4967003203BE04FF4202121614FF4DF
:10312000801096216061616033E04FF420202061BF
:103130004FF4801161615A202AE04FF4202121616F
:103140004FF480103C216061616022E04FF4202048
:1031500020614FF4801161611E2019E04FF420219D
:1031600021614FF4801018216061616011E04FF41B
:10317000202020614FF4801161610C2008E04FF4A1
:10318000202121614FF4801006216061616000E020
:103190006060204601F0E6FE48B948F6133120464B
:1031A00002F06CF918B9204601F0D9FF08B14FF0D0
:1031B000FF3010BD10B54FF42B72DFF89032504342
:1031C0001C5841B1204601F0CAFF2046BDE810401E
:1031D000072102F095B80721204602F091F8204619
:1031E000BDE8104001F0E9BFF0B587B002689F4B21
:1031F0009A4204D0964B9A4208BF012400D0002482
:103200004FF42B73914A13FB04F3D5186A46D5F893
:10321000986206EB860705EB870707F1180606F1AB
:103220000A0302F0A1F878BBD5F89872D5F89C0291
:103230007F1C07F01F07874204D16969491C696137
:1032400007B0F0BD049809281ED2002131720298FF
:1032500000280FBF00980198012131727060039817
:1032600018B1307A40F00200307204987072FDF7A5
:1032700082FD3060C5F89872E868D5F8A412401C49
:10328000E86009B12046884707B0F0BD00000000A3
:10329000F0B58BB00168754A7548914227D1016934
:1032A0008A010AD400210091026942F00072026191
:1032B000016901F000710091009902686EA342F06B
:1032C0000202026006AA00680090009993E8F010DC
:1032D00082E8F010674C06A9204600F085FB00BF8D
:1032E0006AA090E8EA0001AA82E8EA0038E0584AB9
:1032F000914239D101698A010AD400210091026901
:1033000042F000720261016901F0007100910099C0
:10331000026951010AD400220092016941F08061E2
:103320000161016901F0806100910099026842F039
:1033300002020260006800BF59A2009006A800992E
:1033400092E8F80080E8F8004A4C06A9204600F010
:103350004BFB00BF57A191E8EC0001A880E8EC000E
:1033600001A9204600F040FB0BB0F0BD00683F49CA
:10337000884205D0364A904208BF4FF42B7000D0E7
:10338000002032490A18084453685B1C43607047A8
:1033900000683649884205D02D4A904208BF4FF454
:1033A0002B7000D0002029490A18084453685B1C80
:1033B0004360704700682D49884205D0244A9042F6
:1033C00008BF4FF42B7000D0002020490A18084491
:1033D00053685B1C4360704770477047704700211B
:1033E00002E7012100E7704770477047704730B52A
:1033F00081B0044602F053F921681C4A914205D07D
:10340000134B994208BF4FF42B7100D00021C20426
:1034100005D50E4A53180A449D686D1C95604204F8
:1034200005D50A4A53180A449D686D1C9560C0036F
:1034300005D506484218084493685B1C8360204603
:1034400001B0BDE8304002F02CB900006C01002052
:1034500000680040A086010048E8010090D0030009
:1034600020A1070000350C0040420F00006400401E
:103470003038024000040240000100001200000049
:10348000010000000300000009000000000200002D
:10349000020000000000000003000000090000001E
:1034A00020000000120000000100000003000000E6
:1034B00009000000400000000200000000000000C1
:1034C00003000000090000002DE9F041384C217E86
:1034D00005460120012908BF02204ED020762A7817
:1034E000D10716D56968AE6801294CF2503008D171
:1034F00000F09CF801000CD12E494A8822EA060609
:1035000006E000F093F8010003D12A494A881643E7
:103510004E8029788A0708D52E694CF2503000F089
:1035200085F8010004BF23494E702A78510715D54C
:103530004CF250302F7E00F079F807F0800607F04B
:103540004008010007F0200708D11A490A783E43D5
:1035500048EA060602F01F0216430E7029780A0791
:1035600009D569691348027802F0F3020270037802
:1035700019430170002000212176BDE8F0810F2160
:1035800001600C494A888260AA224B78CC2B08BF84
:10359000CC2203D04B78AA2B18BF552202610A68AF
:1035A00002F0E0020276097801F00C0141617047F7
:1035B00074590120143C02404948C168CA0705D526
:1035C0004849494B01600360002070470120704763
:1035D0004648016841F0010101600020704770B564
:1035E0003E4C207A40F00200207200213A48C1612E
:1035F00000F09CF805464CF251362068C10306D510
:1036000000F094F8401BB042F7D3032070BD20684F
:10361000C10744BF01202060216811F0F20F03D0E0
:1036200000F02AF8012070BD002070BD70B504467E
:1036300029492A4E0020C86100F078F80546306814
:10364000C1030AD514F1010FF9D024B100F06EF8CE
:10365000401B8442F3D2032070BD3068C10744BFD1
:1036600001203060316811F0F20F03D000F004F84F
:10367000012070BD002070BD184917480A68D306A4
:1036800005D5C26942F01002C26110230B600A68BE
:10369000930605D5C26942F00802C26120230B607F
:1036A0000A68530605D5C26942F00402C26140238C
:1036B0000B600A68130605D5C26942F00202C261B6
:1036C00080230B600A68930705D5C26942F0200287
:1036D000C261022008607047745901200C3C02400E
:1036E000083C02403B2A19087F6E5D4C143C0240A6
:1036F00062F30F2262F31F4200B500BF130096462B
:103700009446103928BFA0E80C50FAD85FEA417CF3
:1037100028BF0CC048BF40F8042BC90728BF20F8B9
:10372000022B48BF00F8012B00BD00000148406893
:10373000704700BF0000002030B50F4D0F4B2A78B6
:1037400004464FF47A711868B1FBF2F281B0B0FB15
:10375000F2F0FDF7A8F958B9102C09D20022214641
:103760004FF0FF30FDF765F9AC60002001B030BDCF
:10377000012001B030BD00BF000000200C0000207F
:10378000BBBBE1B1B2F5803F80F07E80022A1ED93A
:103790008C46B1FBF2F102FB11C31B0443EA104358
:1037A000B3FBF2FC02FB1C3380B240EA0343B3FBE1
:1037B000F2F002FB103240EA0C4000237047022A6C
:1037C00005D98446B0FBF2F002FB10C270474AB143
:1037D00005D100F0010249085FEA3000704700227D
:1037E0000023704701F078BF0B0002000021002089
:1037F0007047904271EB030CF6D3B3F5803F2FD2A4
:10380000F0B5B3FA83F7B1FA81F4A7F10F0E3D1BBF
:103810005340CEF1200602FA0EF2F3415340B5F1C7
:103820000F0746D80F3C2C444140C4F12006A0406D
:10383000F1414140B1FBF3F603FB1611A2FB064533
:10384000001BA94102D2761E8018594180EA01026C
:1038500021FA0EF362FA0EF200215A403046F0BD12
:1038600030B4B1FBF3FC03FB1C11A2FB0C45001BA5
:10387000A94103D2ACF1010C8018594130BC024679
:103880000B46604600217047B2F1807F65D3F0B5EA
:10389000B2FA82F7B1FA81F4C7F10F063D1B22FAA2
:1038A00006F307F1110EF24120355A40B5F10F072A
:1038B000B8D94140C4F12006A040F1414140B1FBDC
:1038C000F3FC03FB1C11A2FB0C45001BA94103D216
:1038D000BCF1010C801859410F2F12D30F3FC903BF
:1038E00041EA5041B1FBF3F603FB1611A2FB06457A
:1038F000D4EBC030A94102D2761E8018594146EA65
:10390000CC3C07B34140C7F12006B840F1414140EB
:10391000B1FBF3F603FB1611A2FB0645001BA94100
:1039200002D2761E8018594180EA010221FA0EF374
:10393000C7F1200462FA0EF20CFA07F05A402CFA92
:1039400004F13043F0BD80EA010221FA0EF30021B8
:1039500062FA0EF260465A40F0BD8C46B1FBF2F1BD
:1039600002FB11C31B0243EA1063B3FBF2FC02FB30
:103970001C331B024CEA002043EA1063B3FBF2FC49
:1039800002FB1C331B024CEA002043EA1063B3FB2A
:10399000F2FC02FB1C331B024CEA002043EA1063DA
:1039A000B3FBF2FC02FB1C324CEA00200023704700
:1039B00081B00020009000220A48416841F4804113
:1039C0004160416801F480410091009900920368D0
:1039D00043F080530360006800F08050009000982E
:1039E00001B07047403802402DE9F04F03460C46C5
:1039F0004FF0000881B0C146C246674867490F22B0
:103A00000125266805FA08F505EA060EAE4540F0E0
:103A1000B580032606FA09F66FEA060C6668012EE1
:103A200018BF022E03D0112E18BF122E11D19E687E
:103A3000E7680CEA060607FA09F73E439E605E68EF
:103A400026EA05056668C6F3001606FA08F6354349
:103A50005D60DD68A6680CEA050506FA09F63543DF
:103A6000DD606568022D18BF122D10D14FEAD80510
:103A700003EB85050AF01C062F6A02FA06FB27EA0B
:103A80000B07D4F810B00BFA06F63E432E621D6801
:103A90000CEA0506257905F0030505FA09F5354315
:103AA0001D606568ED0069D5002600964FEA980C08
:103AB0000D6845F480450D600E6806F4804600965A
:103AC000009D374E56F82C700AF00C0502FA05F6E8
:103AD00027EA0606334FBB4208BF002722D0324FE9
:103AE000BB4208BF01271DD0304FBB4208BF022791
:103AF00018D02F4FBB4208BF032713D02D4FBB4216
:103B000008BF04270ED02C4FBB4208BF052709D0A1
:103B10002A4FBB4208BF062704D0294FBB420CBF27
:103B20000727082707FA05F535431D4E46F82C50A0
:103B30006FEA0E0C056866680CEA0505F70348BFD6
:103B40004EEA05050560456866680CEA0505B70399
:103B500048BF4EEA05054560856866680CEA0505BC
:103B6000F70248BF4EEA05058560C56866680CEA3D
:103B70000505B60248BF4EEA0505C56008F1010813
:103B8000B8F10F0F0AF1040A09F102097FF638AF04
:103B900001B0BDE8F08F0000003C01404438024015
:103BA00008380140000002400004024000080240C2
:103BB000000C0240001002400014024000180240B5
:103BC000001C024010B586B001A900220023002489
:103BD0001CC10CC10068624A904223D1614C009321
:103BE0000222206840F002002060216801F00201FA
:103BF00000914FF4404100980292039301910322F7
:103C00000C230492059301A95748FFF7EDFE00210C
:103C10000091206840F000502060216801F00051C0
:103C20000091009806B010BD00F57171D0F8040441
:103C300000F03CBBC1EBC10300EB8302D0F80404ED
:103C4000D2F8082200F064BBC1EBC10300EB830291
:103C5000D0F80404926C00F0A1BBD0F8040400F08A
:103C600040BC30B5044681B0E068012508B90025A4
:103C700003E0022818BFFCF7FBFCD4F80404294633
:103C800000F01DFCD4F8040401B0BDE8304000F0A1
:103C9000EBBB10B50446D4F8040400F013FC206814
:103CA00000F56060016841F001010160206A20B107
:103CB0002E48016841F00601016010BDD0F80404EF
:103CC00000F009BCD0F8040400F01BBCD0F80404D8
:103CD00000F015BCD0F8040400F015BCD0F80404C2
:103CE00000F013BC30B581B00178012934D1204CEB
:103CF000C4F80404C0F898420621194820606160A5
:103D0000012002222061E0610021E260A2612162C3
:103D10006162E16221636163204600F005FC08B145
:103D2000FCF7A6FC40F201152946204601F01DFDD6
:103D300041220021204601F0D1FC412202212046EF
:103D400001F0CCFC41220421204601F0C7FC2A46A8
:103D50000521204601F0C2FC002001B030BD00006A
:103D600000000440303802400004024010ED00E042
:103D70008046012000B581B0D0F8980200F0AAFC7E
:103D80000146002019B102290CBF0120022001B018
:103D900000BD10B51C461346D0F89802224600F02C
:103DA000B3FF0146002021B1022901D1012010BD3D
:103DB000022010BD00B581B0D0F8980200F0D3FF0A
:103DC0000146002019B102290CBF0120022001B0D8
:103DD00000BD00B581B0D0F8980201F0A7F8014607
:103DE000002019B102290CBF0120022001B000BD42
:103DF00000B581B0D0F8980201F031F801460020FA
:103E000019B102290CBF0120022001B000BD00B58C
:103E100081B0D0F8980201F05EF80146002019B197
:103E200002290CBF0120022001B000BDD0F8980289
:103E300001F07F02C2EBC203090600EB830002D54A
:103E400090F83E00704790F8FE01704700B581B0D1
:103E5000D0F8980200F044FF0146002019B1022971
:103E60000CBF0120022001B000BD00B581B0D0F828
:103E7000980200F0CDFF0146002019B102290CBFC5
:103E80000120022001B000BD00B581B0D0F8980239
:103E900000F08DFF0146002019B102290CBF01205E
:103EA000022001B000BDD0F8980200F0A8BF0000C9
:103EB00081423ABF53189842FCF784BA8018990798
:103EC00007D0521E24BF13F8011D00F8011DF6D8BB
:103ED000704781071BD1103A07D330B433E9321051
:103EE000103A20E93210F9D230BC1032121F24BF30
:103EF00053F8041D40F8041DF8D838BF121D521E97
:103F000024BF13F8011D00F8011DF8D87047121FD7
:103F1000F3D3C10709D153F8041D121F20F8041D63
:103F20004FEA31414180F6D2E7E753F8041D121FF2
:103F300000F8041D4FEA3121A0F801104FEA314189
:103F4000C170F2D2D9E7000030B5044681B0A06854
:103F5000001F17281CD8DFE800F0181B15121B1BC8
:103F60001B1B1B1B1B1B1B151B1B1B1B1B1B0C0CC5
:103F70000C0F382131480AE054212C4807E0F22187
:103F80002C4804E0B8212C4801E0D421284800B98D
:103F9000FEE7E26821612368D518A94238BF1420E2
:103FA0000AD3273292089200C118203A04F1140073
:103FB000FCF708FAE068143001B030BD30B581B0CC
:103FC0008168091F17291CD8DFE801F0181B15129A
:103FD0001B1B1B1B1B1B1B1B1B151B1B1B1B1B1B37
:103FE0000C0C0C0F3821154B0AE054210F4B07E045
:103FF000F221104B04E0B8210F4B01E0D4210C4B0F
:1040000003B9FEE7C26804681519A94238BF4FF02A
:10401000FF3009D327329208920000F11401203AB0
:104020001819FCF7CFF9002001B030BD7033012022
:10403000C433012098340120C43501208C3501207F
:10404000F0B40023002405001CD080250F782F40F9
:104050007E1EB64127064FEA036CF643FF0F4FEA78
:10406000DC7C5B004CEA440497EAD67F1CBF83F0FB
:10407000050384F080046D08EEB2002EE6D1491CE1
:10408000401EE2D114705370F0BC704700F58050B0
:1040900000B580B2B0F5407F81B0134600DBFEE78B
:1040A0000A46644901441846FCF78CF9002001B027
:1040B00000BD00F5805000B580B2B0F5407F81B002
:1040C000134600DBFEE70A4619465A4B1844FCF734
:1040D00079F9002001B000BD70B50446A06800B9B0
:1040E000FEE76068B0F57E4F07D04FF6F072904261
:1040F00012D140202075002070BD4F4D95F8806092
:10410000E268A91904F11400FCF75CF9E06886196B
:1041100085F88060002070BDB0F5805F10D2464900
:10412000E268084400F1840104F11400FCF74AF944
:10413000E268606804F1140101F0DCFB002070BD4E
:10414000FEE730B5044681B0A068002580B96068FC
:10415000022500B1FEE7E068022838BF4FF0FF30CB
:1041600013D3801EE060617D207D41EA0021616003
:104170006068B0F57E4F0AD04FF6E072904235D1BC
:104180002D4B002083F88000002001B030BD2A4D67
:10419000002085F88000617D012919D01029F3D114
:1041A000E27D207EA17E40EA0220627E41EA022179
:1041B00000230C1D6B702C70AA1CFFF767FFE0B288
:1041C0002844821EA01E2946C0B2FFF739FFDBE754
:1041D000AA2220212846FFF78BFA10200021287000
:1041E000697005F10E0229460E20EEE7B0F5704F1A
:1041F00008D3611901F11402E16889B280B2FFF7B6
:1042000058FFC1E7B0F5805F13D2A92804BFE26868
:10421000092A03D16119143101F05AFB601900F128
:1042200014016068044BE26818448430FCF7CAF853
:10423000AAE7FEE770300120EC1F012010B508B995
:10424000022010BDD0F88C3213B10024C0F88C428B
:1042500009B1C0F88812012180F874120270FFF7CA
:1042600041FD002010BD0246002011B1C2F88C12A1
:1042700070470220704700B581B0FFF77BFD00203A
:1042800001B000BD10B5D0F88C2202241AB112681A
:10429000904700B90024204610BD00B581B0D0F889
:1042A0008C2253689847002001B000BD10B5044629
:1042B00004F5207001F01DFE0121C4F86C1294F881
:1042C0008012B4F88602C4F8700211F01F0203D005
:1042D000022A0FD007D314E004F52071204601F024
:1042E000C5FB002010BD04F52071204601F018FD2B
:1042F000002010BD04F52071204601F041FD002092
:1043000010BD01F080012046FFF772FD002010BDB6
:1043100010B5044610460A0031D1D4F86C120329B6
:1043200022D1D4F84C21D4F8501191420CD2521A17
:10433000C4F84C218A4228BF0A46014692B2204660
:1043400001F051FE002010BDD4F88C12086930B184
:1043500094F87402032802D1096920468847204650
:1043600001F04BFE002010BD0529EBD10020C4F860
:104370006C0200212046FFF73BFD002010BDD4F861
:104380008C22906940B194F87402032804D1926998
:1043900020469047002010BD022010BD10B50446F5
:1043A0000800134651D1D4F86C0202283CD1226A8D
:1043B000616A91420AD2521A2262194692B220468A
:1043C00001F007FE00230022002116E0E269B2FBA3
:1043D000F1F001FB1020A0B98A4212D3D4F8700288
:1043E00082420ED200220021204601F0F2FD002080
:1043F000C4F870020023002200212046FFF744FD8C
:104400001AE0D4F88C12C86830B194F8740203280A
:1044100002D1C9682046884780212046FFF7E8FC82
:10442000204601F0F7FD07E0042818BF002803D15B
:1044300080212046FFF7DCFC94F87802012804BFB5
:10444000002184F87812002010BDD4F88C22506925
:1044500040B194F87402032804D152692046904771
:10446000002010BD022010BD10B5044640230022DC
:104470000021FFF78EFC01224020C4F84421C4F83B
:1044800050014023002280212046FFF782FC0120BA
:104490004021A061616284F874020021D4F8900286
:1044A000C4F86C126160C4F87C1230B1D4F88C226C
:1044B00061685368C9B220469847002010BD017456
:1044C0000020704790F8741280F87512042280F86A
:1044D00074220020704790F8751280F87412002042
:1044E000704700B581B090F87412032904D1D0F858
:1044F0008C12C96901B18847002001B000BD0020BD
:104500007047002070470020704700B581B001223D
:1045100080F87422D0F88C2241685368C9B2984759
:10452000002001B000BD000030B504008BB000F0E9
:10453000C380256894F8BD0328B9002184F8BC1312
:104540002046FFF73FFB032084F8BD03E96BC80555
:104550005CBF00212161206801F033FE83B0211D82
:1045600068463422FBF73EFF0EBC206801F060FD78
:10457000002840F09E802068002101F028FE60683D
:104580000021002800F04580C1EBC10204EB82004D
:10459000012380F83D3080F83C10A0F84210002242
:1045A000002380F83F20436482640365491C6068EF
:1045B000C9B281422DD2C1EBC10204EB82000123BA
:1045C00080F83D3080F83C10A0F842100022002313
:1045D00080F83F20436482640365491C6068C9B267
:1045E000814216D2C1EBC10204EB8200012380F8A4
:1045F0003D3080F83C10A0F842100022002380F8E3
:104600003F20436482640365491C6068C9B28142EB
:10461000BAD360680021002800F04080C1EBC102DD
:1046200004EB8200002380F8FC1180F8FD3180F853
:10463000FF31C0F80432C0F80832C0F81032491C0B
:104640006068C9B2814229D2C1EBC10204EB820089
:1046500080F8FC1180F8FD3180F8FF31C0F8043299
:10466000C0F80832C0F81032491C6068C9B28142F3
:1046700014D2C1EBC10204EB820080F8FC1180F877
:10468000FD3180F8FF31C0F80432C0F80832C0F8BC
:104690001032491C6068C9B28142BFD383B0211D6A
:1046A00068463422FBF79EFE0EBC206801F0AAFD8E
:1046B00028B1022084F8BD0301200BB030BD84F87E
:1046C0003800012184F8BD13206802F0F9F80020B9
:1046D0000BB030BD10B5044694F8BC232068012A05
:1046E00001D1022010BDA36A0122012B84F8BC2352
:1046F00006D1A269012A03D0826B42F48032826320
:1047000002F0D0F8206801F056FD002084F8BC03C8
:1047100010BD00002DE9F04F064687B030680290CA
:10472000019002F00CF9002840F0D282306802F0CB
:10473000D5F8002800F0CC82306802F0CFF880076E
:1047400004D53068416901F002014161306802F02E
:10475000C5F8000340F1D180306802F0C4F80024AD
:104760000500019806F5047B00F5306800F0C5806F
:10477000E80740F1BA803068E1B202F0C2F8814641
:104780005FEAC97068D50121C8F808103768386C2D
:1047900007EB441707F53067B9683269012A49D138
:1047A0000A0714D5DFF83035984204D3080444BF13
:1047B0004FF40041B9603046FFF736FA306806F52D
:1047C0007172012102F0D6F80820B86044E08A0630
:1047D00002D52020B8603FE011F0280F3CD1DFF86F
:1047E000F824904202D3080400F12A80DBF800008C
:1047F000396950B1C1F31201401ACBF804005BF8DB
:10480000081C08444BF8080C02E00022CBF80420F6
:10481000E1B23046FFF70EFA002C04BFD6F81002C2
:10482000002819D1306806F57172012102F0A2F852
:1048300012E000BFDFF8A424904209D1080403D598
:104840004FF40041B96007E0880644BF2021B960F9
:10485000E1B23046FFF7EEF95FEA09702AD5306819
:10486000076C00EB441000F5306081683269012A62
:1048700004D1DFF864349F4209D303E0DFF85C24FD
:10488000974204D1090444BF4FF40042826030468D
:10489000FFF7CAF9DFF84004874207D331690129DD
:1048A00004D1306806F5717202F064F85FF0080018
:1048B000C8F808005FEAC96044BF1021C8F80810B2
:1048C0005FEA89600AD53169012904D1306806F5AB
:1048D000717202F04FF82020C8F808005FEA8940A2
:1048E00044BF4FF40051C8F80810641C6D0808F16B
:1048F00020080BF11C0B7FF43BAF306801F0EEFF9A
:10490000400340F1AE80306801F0F4FF019A019954
:104910005FEA000B02F500624FF0000906F148085B
:1049200001F51061059200F09C8003915FEACB7065
:1049300040F18A8030685FFA89F101F0EDFF0446AA
:10494000039DE00727D50599486B059B012209F0D7
:104950000F018A40904358630120A8603169012902
:1049600006D1D8F8000058F8041C0144C8F800101B
:104970005FFA89F13046FFF767F93069012808BF0F
:10498000B9F1000F07D1306D28B9306806F57172A2
:10499000012101F0EFFF200744BF0821A960E006D4
:1049A00044BF1021A960600644BF4021A960A00750
:1049B00044BF0221A960200646D535680495A8F1B8
:1049C0000C04A069616981423ED3D4F808A0081A9A
:1049D000824588BF82460AF103004FEA900A05EB40
:1049E000491000F51060069017E0A768411A8F4241
:1049F00088BF0F46F81C4FEA900A3069C0B2009099
:104A0000BBB2E1685FFA89F2284601F0E9FEE0688E
:104A1000C019E060A1697F18A761069A6069A16961
:104A200093699BB2534503D3814201D20028DCD164
:104A3000814209D3049800F500600122416B09F01E
:104A40000F039A40914341634FEA5B0B0398203078
:104A5000BBF1000F09F10109039008F11C087FF474
:104A600065AF306801F03AFF002819D5019800F5CC
:104A70000060416849084900416096F8F403012844
:104A800006D1002186F8F413304600F072FE02E0F1
:104A90003046FFF713F93068416901F00041416188
:104AA0003068019C01F01AFF000504F500640AD586
:104AB000A168C80744BF3046FFF7EBF8306841698A
:104AC00001F400614161306801F008FFC00460D565
:104AD00061684908490061601021306801F0AFFC4D
:104AE000706800224FF67F3140B3019800EB42130B
:104AF00003F5106503F53063A960521C2F6827F495
:104B000000172F6099601D6825F400151D607368FB
:104B10009A4213D200EB421303F5106503F530639C
:104B2000A960521C2F6827F400172F6099601D6838
:104B300025F400151D6073689A42D7D3E06940F0F0
:104B40000110E061306B50B1D4F8840040F00B00EC
:104B5000C4F88400606C40F00B00606409E0606998
:104B600040F4005040F02B006061206940F00B00E1
:104B7000206106F57172206820F4FE6020603169C2
:104B80003068C9B201F0F6FE3068416901F4805125
:104B90004161306801F0A2FE800416D5306801F052
:104BA000D2FE306801F067FCF060FCF727F80146A0
:104BB000F2683068D2B201F098FA3046FFF751F847
:104BC0003068416901F400514161306801F086FEAE
:104BD000C00637D53068816921F0100181610298E3
:104BE000046A04F00F01C1EBC10006EB800000F580
:104BF000FE75C4F34340022812D147F6F070044218
:104C00001BD0E9680298C4F30A1201F0FFFDE968BD
:104C1000AA69C4F30A1001448018E960A8610CE095
:104C200006280AD10298082206F5717101F0EEFDFE
:104C3000A969C4F30A104118A9613068816941F07B
:104C400010018161306801F049FE000707D5304648
:104C5000FFF703F83068416901F0080141613068ED
:104C600001F03CFEC00208D500213046FFF72EF8C7
:104C70003068416901F480114161306801F02EFE15
:104C8000800208D500213046FFF71CF830684169E2
:104C900001F400114161306801F020FE400007D5A9
:104CA0003046FFF717F83068416901F080414161F3
:104CB000306801F013FE40070AD531684C68600780
:104CC00044BF3046FFF70AF8306841680C4344603F
:104CD00007B0BDE8F08F00000B30544F0A31544F3D
:104CE00010B5044694F8BC03012801D1022010BD80
:104CF000012084F8BC0384F83810206801F0C4FD5A
:104D0000002084F8BC0310BD70B5054601F00F000B
:104D1000C0EBC00405EB84000E0647BF00F13C0465
:104D2000012000F5FE74002001F00F016070217079
:104D3000A260E370607808B12178E180022B04BFA3
:104D40000020207195F8BC03012801D1022070BD1C
:104D5000012085F8BC032146286801F09AFB002059
:104D600085F8BC0370BD10B5044601F00F00C0EB20
:104D7000C00204EB82000B0647BF3C30012200F565
:104D8000FE70002201F00F014270017094F8BC1314
:104D9000012901D1022010BD012284F8BC23014663
:104DA000206801F0B1FB002084F8BC0310BD30B5D1
:104DB0001C4601F00F03C3EBC30500EB850303F5AD
:104DC000FE7381B05C61002500249C6101F00F013D
:104DD000DA605D7019700469012C08BF1A610269FC
:104DE00000680029D2B2194604D101F08EFC0020DF
:104DF00001B030BD01F0C4FB002001B030BD01F0B6
:104E00000F01C1EBC10200EB8200D0F81402704721
:104E100030B51C4601F00F03C3EBC30500EB85035F
:104E20003C3381B05C61012500249C6101F00F01DD
:104E3000DA605D7019700469012C08BF1A6102699B
:104E400000680029D2B2194604D101F05EFC0020AE
:104E500001B030BD01F094FB002001B030BD30B591
:104E600081B005460C46696804F00F00814238BFE6
:104E700001202ED3210608D5C0EBC00205EB82002D
:104E800000F13C0101234B7007E0C4EBC40105EBCA
:104E9000810000F5FE7100224A700120887004F044
:104EA0000F040C7095F8BC03012808BF022010D035
:104EB000012085F8BC03286801F0B4FC34B92969E5
:104EC000286805F57172C9B201F054FD002085F81B
:104ED000BC0301B030BD10B5044601F00F0062689C
:104EE000824201D2012010BDC0EBC00204EB82005F
:104EF0000B0647BF3C30012200F5FE700022002364
:104F00004270837001F00F01017094F8BC13012905
:104F100001D1022010BD012284F8BC230146206883
:104F200001F098FC002084F8BC0310BD10B50446C5
:104F300094F8BC03012801D1022010BD012084F89F
:104F4000BC030A06206807D501F00F0101F077FACB
:104F5000002084F8BC0310BD01F080FA002084F822
:104F6000BC0310BD30B5040081B02ED094F82000F1
:104F700010B92046FEF78CF92068016821F0020183
:104F80000160FEF7D3FB0546206841688A0705D516
:104F9000FEF7CCFB401B0B28F6D30FE0016841F075
:104FA00001010160FEF7C2FB054620684168CA079F
:104FB0000ED4FEF7BBFB401B0B28F6D3606A40F40F
:104FC00000306062052184F82010012001B030BD5E
:104FD000217E012904D1026842F08002026003E0D0
:104FE000016821F080010160607E0128206801686D
:104FF0000CBF41F0400121F040010160A07E01287A
:10500000206801680CBF41F0200121F020010160FF
:10501000E07E0128206801680CBF21F0100141F0FA
:1050200010010160207F0128206801680CBF41F059
:10503000080121F008010160607F012820680168F3
:105040000CBF41F0040121F004010160A268E06896
:105050002169024360690A43616802432068491E6E
:105060000A43C26100216162012084F8200001B07E
:10507000002030BDF0B490F82020012A18BF022A89
:1050800066D1664A106840F001001060136823F48E
:105090007C53136010684B6A40EA032010600120C3
:1050A0000B7DD56903F01F0300FA03F3DC432540B1
:1050B000D561C869B0B9D0682040D060CF68584881
:1050C000D1F804C04E6900F51075CCEA074745F8E1
:1050D000367000F511708E680F684D69C7EA064C8E
:1050E00040F835C0C869012816D1D0681843D0608F
:1050F0000F684B48D1F804C04E6900F51075CCEA32
:10510000074745F8367000F511708E68CF684D6915
:10511000C7EA064640F835608869002850680CBF29
:1051200020401843506008690028506907BF0440B8
:10513000546118435061086A012802D1D0690343C1
:10514000D36100201168490849001160F0BC704724
:10515000416A41F4802141620120F0BC704730B5C2
:10516000044681B094F8200001281FD1022184F860
:10517000201020680268520852000260FEF7D6FA3A
:10518000054620684168C8070CD5FEF7CFFA401BDA
:105190000B28F6D3606A40F400306062052184F881
:1051A000201007E00020606201B030BD606A40F46A
:1051B00000206062012001B030BD30B5044681B0EE
:1051C00094F82000022822D12068016841F00101F2
:1051D0000160FEF7ABFA054620684168CA070CD4A7
:1051E000FEF7A4FA401B0B28F6D3606A40F40030A7
:1051F0006062052184F820100DE0016821F00201B1
:105200000160012084F8200001B0002030BD606AF8
:1052100040F480106062012001B030BD00660040A3
:1052200000640040F0B490F820400568AD68012C9F
:1052300018BF022C5DD115F0E05F56D0C5F30164B4
:10524000032C03D3416A41F4000155E00125A54038
:105250001D608B68CD680668240133B90B6806F5BC
:10526000C07645EA4355355106E04F6843EAC70327
:105270001D4306F5C0731D5103680D6903F5C27621
:105280003551097D012908D1016801F5C27301F585
:10529000C2711D5945F480750D519579D3791179F5
:1052A0002D0445EA0365537945EA03250368234441
:1052B0000D43C3F88C519378D17855781B0443EA99
:1052C00001631178026843EA052322440B43C2F8C4
:1052D0008831006800F5C07100F5C0700A5942F0CD
:1052E000010202510020F0BC7047416A41F40011F4
:1052F00002E0416A41F4802141620120F0BC704724
:1053000090F82020012A18BF022A16D1CA0704D516
:105310000268936843F0800393608A0704D50268AB
:10532000936843F400439360490704D5006881689B
:1053300041F40001816000207047416A41F48021FE
:105340004162012070470246002092F82030012B74
:1053500018BF022B07D11268936803EA8163B3EB8D
:10536000816F18BF01207047F0B490F82040012CE5
:1053700018BF022C7BD10029046807D1E56815F01D
:10538000030F0BD1416A41F4001173E0256915F058
:10539000030F03D1416A41F400116BE00D0104F5E4
:1053A000D876745914F004049460066806F5D8742D
:1053B000665907BF760D1660F6085660046804F556
:1053C000D876775907F00207D76004682C44D4F8E0
:1053D000B46106F00F06166104682C44D4F8B46179
:1053E000C6F30724946104682C44D4F8B461360CE5
:1053F000566102682A44D2F8B8411C7006682E44EF
:10540000D6F8B821120A5A7004682C44D4F8B8218E
:10541000120C9A7004682C44D4F8B821120EDA7079
:1054200004682C44D4F8BC211A7104682C44D4F8C4
:10543000BC21120A5A7104682C44D4F8BC21120C05
:105440009A7104682C44D4F8BC21120EDA710068F9
:1054500031B9C16841F02001C1600020F0BC704743
:10546000016941F0200101610020F0BC7047416AF0
:1054700041F4802141620120F0BC704790F8202067
:10548000012A18BF022A05D100684269114341610F
:1054900000207047416A41F4802141620120704739
:1054A0002DE9F04F054681B028684669D0F804B070
:1054B0008468D0F80C90D0F810A08769F1074FF0FD
:1054C000000845D5E20713D501218160A00703D567
:1054D0002846FDF74BFF0BE0600748BF4FF400681C
:1054E00006D420074EBF4FF480582846FDF774FFBE
:1054F000E00515D52A684FF48071A005916003D5A9
:105500002846FDF745FF0BE0600548BF48F400580A
:1055100006D420054EBF48F480482846FDF75DFFBD
:10552000E00315D52A684FF48031A003916003D5BC
:105530002846FDF73FFF0BE0600348BF48F40048F2
:1055400006D420034EBF48F480382846FDF746FFB6
:10555000300748BF5FEAC96104D52968102048F4C4
:105560000078C860700748BF5FEA097105D52A68EE
:105570000820D0602846FDF736FFB00707D5296818
:10558000C86810F0030F1CBF2846FDF728FF7006FF
:1055900048BF5FEACA6104D52968102048F48068D2
:1055A0000861B00648BF5FEA0A7105D52A6808207D
:1055B00010612846FDF718FFF00607D5296808692D
:1055C00010F0030F1CBF2846FDF70BFFB00348BFC8
:1055D0005FEACB6105D52A68102050602846FDF7A8
:1055E00004FFF00348BF5FEA0B7105D52A68082065
:1055F00050602846FDF7FAFE300440D55FEA4B7153
:105600003AD5F00503D5F90748BF48F00108B005C1
:1056100003D5B90748BF48F00208700503D57907DC
:1056200048BF48F00408300526D517F0700F23D086
:1056300007F07007102F0CD0202F0DD0302F0ED078
:10564000402F0FD0502F10D0602F08BF48F4807823
:105650000DE048F008080AE048F0100807E048F0BC
:10566000200804E048F0400801E048F0800828687D
:10567000816921F070018161042029684860B8F1D6
:10568000000F09D0686A48EA0000686201B0284645
:10569000BDE8F04FFDF7ABBE01B0BDE8F08F406A4A
:1056A00070470146002091F82020012A18BF022AE5
:1056B00001D148627047486A40F480204862012066
:1056C000704710B5044610460A460146204601F0D0
:1056D000ABF9204610BD000070470000F0B404682C
:1056E000656A0B0005D145EA0245A5620020F0BCC1
:1056F0007047A06A05EB10450026581E2CD010F00C
:1057000003010AD004F582775FFA86FC57F82C7003
:10571000761C491E05EB1745F4D1800800F01C806B
:1057200004F58271F7B251F8277005EB1745761C26
:10573000F7B251F8277005EB1745761CF7B251F810
:10574000277005EB1745761CF7B251F82710761C29
:10575000401E05EB1145E3D104EB830045EA024509
:10576000C0F800510020F0BC704700684162002082
:105770007047704770B4002484634FF4DC75C563D0
:10578000AF4C25682E022D0A26F0FF1625F0FF25C6
:1057900035434FEA3545056064682602240A26F041
:1057A000FF1624F0FF2434434FEA344404631C689A
:1057B000250A25F0FF2545EA04252C042D0E45EA8F
:1057C000142545F0804585625C681B68250A25F034
:1057D000FF2545EA042503F07F432C0443EA142304
:1057E00043EA1563C3620B681C021B0A24F0FF1412
:1057F00023F0FF2323434FEA334343604B681C02EB
:105800001B0A24F0FF1423F0FF2323434FEA334302
:1058100083608B681C021B0A24F0FF1423F0FF2313
:1058200023434FEA3343C360CB681C021B0A24F0B6
:10583000FF1423F0FF2323434FEA334303610B6933
:105840001C021B0A24F0FF1423F0FF2323434FEA1A
:10585000334343614B691C021B0A24F0FF1423F0FD
:10586000FF2323434FEA334383618B691C021B0AE6
:1058700024F0FF1423F0FF2323434FEA3343C36193
:10588000C9690B02090A23F0FF1321F0FF21194314
:105890004FEA3141016211680B02090A23F0FF133C
:1058A00021F0FF2119434FEA31414162516821F053
:1058B0007F410A02090A22F0FF1221F0FF21114361
:1058C0004FEA314141F080014163002070BC7047D4
:1058D000A9280DD10878D02802D1481C594903E0E5
:1058E000A02805D1481C564902680A6042684A60EF
:1058F000002070472DE9F04FA028D1B00C4605D00C
:10590000B02813D0002051B0BDE8F08F082A40F035
:1059100093804B4800F150010A682260211D50F825
:10592000542F0A60002051B0BDE8F08F142A40F0D7
:105930008380DFF80C8108F1500308F1480208F178
:10594000580108F10800FFF715FF4FF4A07101A8F6
:10595000FAF796FE3C4D3D4B3D4A3E493E48DFF846
:10596000FCA000954FF0000C0DF1040BBCF1140FDE
:1059700004D202EA010620EA02050FE0ACF1280594
:10598000142D05D381EA000582EA050E08E000BF68
:1059900041EA000501EA000615EA020545EA060E9D
:1059A000BCF1140F38BF2E4D09D3BCF1280F05D31D
:1059B000BCF13C0F34BF2B4D009D00E02A4DE14669
:1059C000B9F1100F1AD301AE06EB890757F80C6C2A
:1059D00001AF07EB890757F8207C7E4001AF07EB4A
:1059E000890757F8387C7E4001AF07EB890757F8E5
:1059F000407C7E404FEAF67604E000BF08F10807DD
:105A000057F829604BF829600CF1010C0EEBF36696
:105A1000B2445BF829E05544824608464FEAB20199
:105A200075441A46BCF1500F2B469FDB2361E260A0
:105A3000A1606060C4F800A0002051B0BDE8F08F04
:105A40001807002060070020D6C162CA01234567FD
:105A500089ABCDEFFEDCBA9876543210F0E1D2C3B8
:105A60009979825ADCBC1B8FA1EBD96E70B50D46BB
:105A700082B00446287810F060000CD0202818BFAF
:105A8000402840F0E480D4F88C2293682046984760
:105A9000002002B070BD6878092800F2D880DFE8E5
:105AA00010F00F012C01D6002501D6008F000A004E
:105AB000D600FC00B2006888010A491E062900F2DF
:105AC000C680DFE801F05D4D1AC4C4100400207CDC
:105AD000002840F0BC80D4F88C120A6B68469047CE
